{
  "contractName": "StrikeContract",
  "abi": [
    {
      "constant": true,
      "inputs": [
        {
          "name": "",
          "type": "address"
        },
        {
          "name": "",
          "type": "uint256"
        }
      ],
      "name": "allvoters",
      "outputs": [
        {
          "name": "",
          "type": "bool"
        }
      ],
      "payable": false,
      "stateMutability": "view",
      "type": "function"
    },
    {
      "constant": false,
      "inputs": [],
      "name": "addAddress",
      "outputs": [
        {
          "name": "success",
          "type": "bool"
        }
      ],
      "payable": false,
      "stateMutability": "nonpayable",
      "type": "function"
    },
    {
      "constant": true,
      "inputs": [],
      "name": "checkAddress",
      "outputs": [
        {
          "name": "",
          "type": "bool[2]"
        }
      ],
      "payable": false,
      "stateMutability": "view",
      "type": "function"
    },
    {
      "constant": false,
      "inputs": [],
      "name": "increaseVote",
      "outputs": [
        {
          "name": "",
          "type": "int8"
        }
      ],
      "payable": false,
      "stateMutability": "nonpayable",
      "type": "function"
    },
    {
      "constant": false,
      "inputs": [],
      "name": "decreaseVote",
      "outputs": [
        {
          "name": "",
          "type": "int8"
        }
      ],
      "payable": false,
      "stateMutability": "nonpayable",
      "type": "function"
    },
    {
      "constant": true,
      "inputs": [],
      "name": "getTotal",
      "outputs": [
        {
          "name": "",
          "type": "uint8"
        }
      ],
      "payable": false,
      "stateMutability": "view",
      "type": "function"
    },
    {
      "constant": true,
      "inputs": [],
      "name": "getVote",
      "outputs": [
        {
          "name": "",
          "type": "int8"
        }
      ],
      "payable": false,
      "stateMutability": "view",
      "type": "function"
    }
  ],
  "bytecode": "0x606060405260008060006101000a81548160ff021916908360ff16021790555060008060016101000a81548160ff021916908360000b60ff160217905550341561004857600080fd5b6107b4806100576000396000f300606060405260043610610083576000357c0100000000000000000000000000000000000000000000000000000000900463ffffffff1680630242f351146100885780630ee96953146100b75780631256fa53146100e45780633722c1da14610135578063775a25e314610164578063a3f044a514610193578063e6359b45146101ed575b600080fd5b341561009357600080fd5b61009b61021c565b604051808260000b60000b815260200191505060405180910390f35b34156100c257600080fd5b6100ca610232565b604051808215151515815260200191505060405180910390f35b34156100ef57600080fd5b6100f7610304565b6040518082600260200280838360005b83811015610122578082015181840152602081019050610107565b5050505090500191505060405180910390f35b341561014057600080fd5b6101486103b1565b604051808260000b60000b815260200191505060405180910390f35b341561016f57600080fd5b6101776104ed565b604051808260ff1660ff16815260200191505060405180910390f35b341561019e57600080fd5b6101d3600480803573ffffffffffffffffffffffffffffffffffffffff16906020019091908035906020019091905050610503565b604051808215151515815260200191505060405180910390f35b34156101f857600080fd5b61020061053b565b604051808260000b60000b815260200191505060405180910390f35b60008060019054906101000a900460000b905090565b600060011515610240610304565b600060028110151561024e57fe5b6020020151151514156102645760009050610301565b60408051908101604052806001151515158152602001600015151515815250600160003373ffffffffffffffffffffffffffffffffffffffff1673ffffffffffffffffffffffffffffffffffffffff1681526020019081526020016000209060026102d0929190610696565b5060016000809054906101000a900460ff16016000806101000a81548160ff021916908360ff160217905550600190505b90565b61030c61072f565b600160003373ffffffffffffffffffffffffffffffffffffffff1673ffffffffffffffffffffffffffffffffffffffff1681526020019081526020016000206002806020026040519081016040528092919082600280156103a7576020028201916000905b82829054906101000a900460ff161515815260200190600101906020826000010492830192600103820291508084116103715790505b5050505050905090565b6000607f600060019054906101000a900460000b60000b13156103d357600080fd5b600115156103df610304565b60016002811015156103ed57fe5b60200201511515148061041e575060001515610407610304565b600060028110151561041557fe5b60200201511515145b1561043a57600060019054906101000a900460000b90506104ea565b60408051908101604052806001151515158152602001600115151515815250600160003373ffffffffffffffffffffffffffffffffffffffff1673ffffffffffffffffffffffffffffffffffffffff1681526020019081526020016000209060026104a6929190610696565b506001600060019054906101000a900460000b01600060016101000a81548160ff021916908360000b60ff160217905550600060019054906101000a900460000b90505b90565b60008060009054906101000a900460ff16905090565b60016020528160005260406000208160028110151561051e57fe5b60209182820401919006915091509054906101000a900460ff1681565b60007fffffffffffffffffffffffffffffffffffffffffffffffffffffffffffffff81600060019054906101000a900460000b60000b121561057c57600080fd5b60001515610588610304565b600160028110151561059657fe5b6020020151151514806105c75750600015156105b0610304565b60006002811015156105be57fe5b60200201511515145b156105e357600060019054906101000a900460000b9050610693565b60408051908101604052806001151515158152602001600015151515815250600160003373ffffffffffffffffffffffffffffffffffffffff1673ffffffffffffffffffffffffffffffffffffffff16815260200190815260200160002090600261064f929190610696565b506001600060019054906101000a900460000b03600060016101000a81548160ff021916908360000b60ff160217905550600060019054906101000a900460000b90505b90565b826002601f0160209004810192821561071e5791602002820160005b838211156106ef57835183826101000a81548160ff02191690831515021790555092602001926001016020816000010492830192600103026106b2565b801561071c5782816101000a81549060ff02191690556001016020816000010492830192600103026106ef565b505b50905061072b9190610758565b5090565b60408051908101604052806002905b6000151581526020019060019003908161073e5790505090565b61078591905b8082111561078157600081816101000a81549060ff02191690555060010161075e565b5090565b905600a165627a7a7230582085e040aad1f99e790f2f19e705c4bd198675d81dfb4f36cc6e881bd2238f7cf40029",
  "source": "pragma solidity ^0.4.17;\ncontract StrikeContract {\n    \n  uint8 usertotal = 0;\n  int8 vote = 0;\n  mapping(address => bool[2]) public allvoters;\n\n  //    Add user's address when the sign up\n  function addAddress() public returns(bool success) {\n      if (checkAddress()[0] == true) {\n          return false;\n      }\n      allvoters[msg.sender] = [true, false];\n      usertotal = usertotal + 1;\n      return true;  \n  }\n  \n  //    Check if user has been added already\n  function checkAddress() public view returns (bool [2]) {\n        return allvoters[msg.sender];\n  }\n  \n  //    Increment the vote when someone votes to go on strike\n  function increaseVote () public returns(int8) {\n    if (vote > 127) revert();\n    if (checkAddress()[1] == true || checkAddress()[0] == false) {\n        return vote;\n    }\n    allvoters[msg.sender] = [true, true];\n    vote = vote + 1;\n    return vote;\n  }\n  \n  //    Decrease the vote when someone votes not to go on strike\n  function decreaseVote () public returns(int8) {\n    if (vote < -127) revert();\n    // bool[] memory address_info = new bool[](2);\n    // address_info[0] = checkAddress()[0];\n    if (checkAddress()[1] == false || checkAddress()[0] == false) {\n        return vote;\n    }\n    allvoters[msg.sender] = [true, false];\n    vote = vote - 1;\n    return vote;\n  }\n  \n  //   Get total number of union members \n  function getTotal () public constant returns(uint8) {\n    return usertotal;\n  }\n  \n  //   Get total number of union members that have voted to join\n  function getVote () public constant returns(int8) {\n    return vote;\n  }\n}",
  "sourcePath": "/Users/miguelramos/mishingo/hackathon/strike-back/contracts/StrikeContract.sol",
  "compiler": {
    "name": "solc",
    "version": "0.4.19+commit.c4cbbb05.Emscripten.clang"
  },
  "schemaVersion": "1.0.1",
  "updatedAt": "2018-02-18T06:06:31.869Z"
}