{
  "contractName": "StrikeContract",
  "abi": [
    {
      "inputs": [],
      "payable": false,
      "stateMutability": "nonpayable",
      "type": "constructor"
    },
    {
      "constant": true,
      "inputs": [],
      "name": "getTotal",
      "outputs": [
        {
          "name": "",
          "type": "uint8"
        }
      ],
      "payable": false,
      "stateMutability": "view",
      "type": "function"
    },
    {
      "constant": true,
      "inputs": [],
      "name": "getVote",
      "outputs": [
        {
          "name": "",
          "type": "int8"
        }
      ],
      "payable": false,
      "stateMutability": "view",
      "type": "function"
    },
    {
      "constant": false,
      "inputs": [],
      "name": "increaseVote",
      "outputs": [
        {
          "name": "",
          "type": "int8"
        }
      ],
      "payable": false,
      "stateMutability": "nonpayable",
      "type": "function"
    },
    {
      "constant": false,
      "inputs": [],
      "name": "decreaseVote",
      "outputs": [
        {
          "name": "",
          "type": "int8"
        }
      ],
      "payable": false,
      "stateMutability": "nonpayable",
      "type": "function"
    }
  ],
  "bytecode": "0x6060604052341561000f57600080fd5b60008060016101000a81548160ff021916908360000b60ff16021790555060008060006101000a81548160ff021916908360ff160217905550610297806100576000396000f300606060405260043610610062576000357c0100000000000000000000000000000000000000000000000000000000900463ffffffff1680630242f351146100675780633722c1da14610096578063775a25e3146100c5578063e6359b45146100f4575b600080fd5b341561007257600080fd5b61007a610123565b604051808260000b60000b815260200191505060405180910390f35b34156100a157600080fd5b6100a9610139565b604051808260000b60000b815260200191505060405180910390f35b34156100d057600080fd5b6100d86101ce565b604051808260ff1660ff16815260200191505060405180910390f35b34156100ff57600080fd5b6101076101e4565b604051808260000b60000b815260200191505060405180910390f35b60008060019054906101000a900460000b905090565b6000607f600060019054906101000a900460000b60000b131561015b57600080fd5b6001600060018282829054906101000a900460000b0192506101000a81548160ff021916908360000b60ff16021790555060016000808282829054906101000a900460ff160192506101000a81548160ff021916908360ff160217905550600060019054906101000a900460000b905090565b60008060009054906101000a900460ff16905090565b60007fffffffffffffffffffffffffffffffffffffffffffffffffffffffffffffff81600060019054906101000a900460000b60000b121561022557600080fd5b6001600060018282829054906101000a900460000b0392506101000a81548160ff021916908360000b60ff160217905550600060019054906101000a900460000b9050905600a165627a7a72305820205a2175c53d97b40d80852ded86404cac84818fa73bf1d6dcb3bbeeeb1eca8d0029",
  "source": "pragma solidity ^0.4.17;\ncontract StrikeContract {\n  uint8 votetotal;\n  int8 vote;\n  function StrikeContract() {\n    vote = 0;\n    votetotal = 0;\n  }\n  function getTotal () public constant returns(uint8) {\n    return votetotal;\n  }\n  function getVote () public constant returns(int8) {\n    return vote;\n  }\n  function increaseVote () public returns(int8) {\n    if (vote > 127) revert();\n    vote += 1;\n    votetotal += 1;\n    return vote;\n  }\n  function decreaseVote () public returns(int8) {\n    if (vote < -127) revert();\n    vote -= 1;\n    return vote;\n  }\n}",
  "sourcePath": "/Users/miguelramos/mishingo/hackathon/strike-back/contracts/StrikeContract.sol",
  "compiler": {
    "name": "solc",
    "version": "0.4.19+commit.c4cbbb05.Emscripten.clang"
  },
  "schemaVersion": "1.0.1",
  "updatedAt": "2018-02-18T04:12:58.662Z"
}